:100000000C9462000C948A000C948A000C948A0070
:100010000C948A000C948A000C948A000C948A0038
:100020000C948A000C948A000C948A000C948A0028
:100030000C948A000C948A000C948A000C948A0018
:100040000C941D020C948A000C948D020C9467028F
:100050000C948A000C948A000C948A000C948A00F8
:100060000C948A000C948A000000000025002800EF
:100070002B0000000000240027002A0000000000E0
:1000800023002600290004040404040404040202DA
:100090000202020203030303030301020408102007
:1000A0004080010204081020010204081020000012
:1000B0000008000201000003040700000000000027
:1000C0000000E00311241FBECFEFD8E0DEBFCDBF9C
:1000D00011E0A0E0B1E0EEE6F8E002C005900D927C
:1000E000A631B107D9F721E0A6E1B1E001C01D9228
:1000F000AE3BB207E1F710E0C2E6D0E004C02197C2
:10010000FE010E942F04C136D107C9F70E94BF0229
:100110000C9435040C940000AF92BF92CF92DF9202
:10012000EF92FF920F931F93CF93DF936C017B01AC
:100130008B01040F151FEB015E01AE18BF08C0173D
:10014000D10759F06991D601ED91FC910190F081B0
:10015000E02DC6010995892B79F7C501DF91CF9173
:100160001F910F91FF90EF90DF90CF90BF90AF90D5
:100170000895FC01538D448D252F30E0842F90E0AD
:10018000821B930B541710F0CF9608950197089592
:10019000FC01918D828D981761F0A28DAE0FBF2F5B
:1001A000B11D5D968C91928D9F5F9F73928F90E0B1
:1001B00008958FEF9FEF0895FC01918D828D981720
:1001C00031F0828DE80FF11D858D90E008958FEF5D
:1001D0009FEF0895FC01918D228D892F90E0805C26
:1001E0009F4F821B91098F739927089581E291E0B7
:1001F0000E94EA0021E0892B09F420E0822F089573
:1002000080E090E0892B29F00E94F60081110C9487
:1002100000000895FC01A48DA80FB92FB11DA35AA9
:10022000BF4F2C91848D90E001968F739927848F16
:10023000A689B7892C93A089B1898C918370806439
:100240008C93938D848D981306C00288F389E02DDA
:1002500080818F7D80830895EF92FF920F931F938B
:10026000CF93DF93EC0181E0888F9B8D8C8D981369
:100270001AC0E889F989808185FF15C09FB7F89475
:10028000EE89FF896083E889F989808183708064C1
:1002900080839FBF81E090E0DF91CF911F910F910C
:1002A000FF90EF900895F62E0B8D10E00F5F1F4F1B
:1002B0000F731127E02E8C8D8E110CC00FB607FC2A
:1002C000FACFE889F989808185FFF5CFCE010E94B8
:1002D0000A01F1CFEB8DEC0FFD2FF11DE35AFF4F1B
:1002E000F0829FB7F8940B8FEA89FB898081806246
:1002F000CFCFCF93DF93EC01888D8823B9F0AA8903
:10030000BB89E889F9898C9185FD03C0808186FDD0
:100310000DC00FB607FCF7CF8C9185FFF2CF80811F
:1003200085FFEDCFCE010E940A01E9CFDF91CF9189
:1003300008958F929F92AF92BF920F931F93CF9386
:10034000DF93CDB7DEB7A1970FB6F894DEBF0FBE2F
:10035000CDBF19A2423008F44AE08E010F5D1F4F55
:10036000842E912CB12CA12CA50194010E940D0486
:10037000E62FB901CA01EA3044F5E05DD801EE93F9
:100380008D01232B242B252B79F790E080E010970B
:1003900069F0FD0101900020E9F73197AF014A1B98
:1003A0005B0BBD0181E291E00E948C00A1960FB62B
:1003B000F894DEBF0FBECDBFDF91CF911F910F919B
:1003C000BF90AF909F908F900895E95CD7CFCF9268
:1003D000DF92EF92FF92CF93DF936C01990FEE08BB
:1003E000FF08F7FE23C06DE281E291E00E942C013C
:1003F000EC0166277727CB016C197D098E099F09CF
:100400004AE00E949901C80FD91F42E050E062E122
:1004100071E081E291E00E948C008C0F9D1FDF91C2
:10042000CF91FF90EF90DF90CF9008954AE0C70101
:10043000B6010E949901EC01E8CF1F920F920FB60E
:100440000F9211242F933F938F939F93AF93BF935A
:1004500080911D0190911E01A0911F01B09120017A
:1004600030911C0123E0230F2D3758F50196A11D73
:10047000B11D20931C0180931D0190931E01A09338
:100480001F01B09320018091180190911901A09152
:100490001A01B0911B010196A11DB11D8093180195
:1004A00090931901A0931A01B0931B01BF91AF91D2
:1004B0009F918F913F912F910F900FBE0F901F90A2
:1004C000189526E8230F0296A11DB11DD2CF1F92C9
:1004D0000F920FB60F9211242F933F934F935F9378
:1004E0006F937F938F939F93AF93BF93EF93FF93FC
:1004F00081E291E00E940A01FF91EF91BF91AF91DB
:100500009F918F917F916F915F914F913F912F912B
:100510000F900FBE0F901F9018951F920F920FB65D
:100520000F9211242F938F939F93EF93FF93E0915A
:100530003101F09132018081E0913701F091380171
:1005400082FD1BC0908180913A018F5F8F73209153
:100550003B01821741F0E0913A01F0E0EF5DFE4F80
:10056000958F80933A01FF91EF919F918F912F91F9
:100570000F900FBE0F901F9018958081F4CF789444
:1005800084B5826084BD84B5816084BD85B5826098
:1005900085BD85B5816085BD80916E008160809349
:1005A0006E001092810080918100826080938100B2
:1005B00080918100816080938100809180008160C2
:1005C000809380008091B10084608093B10080911D
:1005D000B00081608093B00080917A008460809345
:1005E0007A0080917A00826080937A0080917A000C
:1005F000816080937A0080917A00806880937A008D
:100600001092C100E0913101F091320182E08083CB
:10061000E0912D01F0912E011082E0912F01F091D7
:1006200030018FEC808310923901E0913501F09117
:10063000360186E08083E0913301F09134018081BE
:1006400080618083E0913301F09134018081886082
:100650008083E0913301F091340180818068808350
:10066000E0913301F091340180818F7D8083E7EA4E
:10067000F0E02491E3E9F0E08491882399F090E0A0
:10068000880F991FFC01EE58FF4FA591B491FC0112
:10069000E859FF4F859194918FB7F894EC91E22B34
:1006A000EC938FBFCDE9D0E0FE01249109E810E082
:1006B000F80184918823C9F090E0880F991FFC010C
:1006C000EE58FF4FA591B491FC01E859FF4F4591B9
:1006D00054913FB7F8949C91822F809598239C93D6
:1006E000FA019081892380833FBF91EBE92E90E04E
:1006F000F92E20E0C22E20E0D22EF7018491FE01D7
:100700009491F8012491222309F457C0882351F0D1
:10071000833009F43BC080F5813009F43DC082305C
:1007200009F43EC0E22FF0E0EE0FFF1FE458FF4F48
:10073000A591B4912C91292381E090E009F480E007
:1007400080931601909317010E94E7018091160192
:1007500090911701019721F481E090E00E94E70158
:10076000C114D10409F4C9CF0E94F600882309F40A
:10077000C4CF0E940000C1CF8730A9F08830C9F0F3
:10078000843081F6809180008F7D03C0809180004D
:100790008F7780938000C6CF84B58F7784BDC2CF1A
:1007A00084B58F7DFBCF8091B0008F778093B000B0
:1007B000B9CF8091B0008F7DF9CF80E090E0C0CFBD
:1007C000E1E2F1E01382128288EE93E0A0E0B0E073
:1007D00084839583A683B78384E091E091838083AB
:1007E00085EC90E09587848784EC90E097878687F6
:1007F00080EC90E0918B808B81EC90E0938B828BEE
:1008000082EC90E0958B848B86EC90E0978B868BC6
:10081000118E128E138E148E0895A1E21A2EAA1B29
:10082000BB1BFD010DC0AA1FBB1FEE1FFF1FA217A0
:10083000B307E407F50720F0A21BB30BE40BF50B9D
:10084000661F771F881F991F1A9469F76095709526
:10085000809590959B01AC01BD01CF010895EE0FED
:0E086000FF1F0590F491E02D0994F894FFCF4E
:10086E00000000002C018C00B9007901EA00C800DC
:06087E00DC000D0A000081
:00000001FF
